:020000022000DC
:106000000000042069FB0200A9FB0200ABFB0200B8
:10601000ADFB0200AFFB0200B1FB0200000000007C
:10602000000000000000000000000000052E03003A
:10603000B5FB020000000000252E0300B9FB0200A2
:10604000792F0300BBFB0200BBFB0200BBFB02007D
:10605000BBFB0200BBFB0200BBFB0200BBFB020060
:10606000BBFB0200BBFB0200BBFB0200BBFB020050
:10607000BBFB0200BBFB0200BBFB0200BBFB020040
:10608000BBFB02005D2B0300BBFB0200BBFB02005D
:10609000BBFB0200BBFB020059890200BBFB0200F4
:1060A000BBFB0200BBFB0200BBFB0200BBFB020010
:1060B000BBFB0200BBFB0200000000000000000070
:1060C000BBFB0200BBFB0200BBFB0200BBFB0200F0
:1060D000BBFB0200BBFB0200BBFB0200A13C0300B8
:1060E000BBFB0200BBFB0200BBFB02000000000088
:1060F00000000000BBFB020000000000BBFB020030
:10610000000000000000000000000000000000008F
:10611000000000000000000000000000000000007F
:10612000000000000000000000000000000000006F
:10613000000000000000000000000000000000005F
:10614000000000000000000000000000000000004F
:10615000000000000000000000000000000000003F
:10616000000000000000000000000000000000002F
:10617000000000000000000000000000000000001F
:10618000000000000000000000000000000000000F
:1061900000000000000000000000000000000000FF
:1061A00000000000000000000000000000000000EF
:1061B00000000000000000000000000000000000DF
:1061C00000000000000000000000000000000000CF
:1061D00000000000000000000000000000000000BF
:1061E00000000000000000000000000000000000AF
:1061F000000000000000000000000000000000009F
:10620000F1EE103A43F08073E1EE103A704700BFB0
:1062100010B5054C237833B9044B13B10448AFF3E0
:1062200000800123237010BDA86200200000000040
:10623000D0AA030008B5034B1BB103490348AFF3D1
:10624000008008BD00000000AC620020D0AA03005E
:10625000154B002B08BF134B9D46A3F5803A002138
:106260008B460F461348144A121A10F065FD0F4B67
:10627000002B00D098470E4B002B00D098470020F1
:10628000002104000D000D48002802D00C48AFF397
:10629000008010F0E7FC200029000DF089FD10F0CF
:1062A000BBFC00BF0000080000000420000000004C
:1062B00000000000A8620020009000200000000004
:1062C0000000000070B50D4E0D4D0E4C52233046AF
:1062D0000822012103F002FA2A460B49304610F049
:1062E0005BFC20464FF4807102F02AFC2A462046CF
:1062F0000649BDE8704010F04FBC00BFA06300200D
:1063000000600020C462002039970200AD900200B6
:10631000F8B5274D274F284E00222846012102F0CC
:10632000CDF82846042102F083FA2449284605F5D1
:10633000007402F055FA384602F0ECFE06212046C1
:1063400000F0C0FA204600F0A5FA3946204600F0D9
:1063500063FA05F50F7000F06FFA2046012100F096
:10636000E3FAF4222046202100F0DAFA20461E212A
:1063700000F0D4FA2046002100F036FB00210D2069
:106380000DF01AF900210D200DF056F9304603F0FA
:10639000E1F93046322103F023FD002330461A464E
:1063A000194603F0B3FC3046BDE8F84003F0E4B909
:1063B000E8630020C4620020A063002048A003001E
:1063C00008B535484FF4FA7100F052F918B1334B63
:1063D0005A78422A00D008BDDA78302AFBD09B7860
:1063E000303BDBB2013B072BF5D8DFE803F04A4036
:1063F000362C22180E04802000F064F8BDE8084016
:1064000027492848092202F0CBBC812000F05AF825
:10641000BDE8084024492348072202F0C1BC82207D
:1064200000F050F8BDE8084020491E48042202F060
:10643000B7BC832000F046F8BDE808401C49194865
:10644000032202F0ADBC872000F03CF8BDE8084014
:1064500018491448062202F0A3BC942000F032F838
:10646000BDE8084014490F48072202F099BC852076
:1064700000F028F8BDE8084010490A48062202F05A
:106480008FBC842000F01EF8BDE808400C49054888
:10649000042202F085BC00BFC4620020B863002063
:1064A00070A00300D462002068A0030060A0030075
:1064B0005CA0030094A003008CA0030084A0030050
:1064C0007CA003002DE9F8432B4C2C4EA070C34355
:1064D00001210D20E37046F001060DF06DF828480B
:1064E000284FB04700210D200DF066F82648B04730
:1064F000A04604F1040918F8015B082401210D20CD
:106500000DF05AF84FF41140B04700210D200DF066
:1065100053F815F0010F384608BF4FF41140B0474B
:10652000013C4FEA5505E9D1C845E4D101210D20D0
:106530000DF042F84FF41140B04721460D200DF008
:106540003BF81248B04701210D200DF035F80C48FA
:10655000B04721460D200DF02FF80B48B047012120
:106560000D200DF029F84FF41140B04721460D20C1
:10657000BDE8F8430DF020B804600020A0A003009F
:1065800000D7080040AA0100C0710400005B27008A
:10659000002961D001292DE9F04705460F463AD080
:1065A000DFF8C8902E4CDFF8C080451E002601F1B0
:1065B000FF3A494620460DF0C1F815F8013F0F2B70
:1065C000414620464FF0100213D80DF0B7F8297855
:1065D000102201F00F0120460DF070F9B24521495B
:1065E000204606F101060DD1BDE8F0471C480DF02C
:1065F00001B919460DF062F9B2451A49204606F173
:106600000106F1D00DF09AF8B742D2D1BDE8F047BB
:1066100013480DF0EFB8DFF85480114E124F441EAE
:1066200004E019460DF04AF9AC42DDD0414630464F
:106630000DF084F814F8013F0F2B394630464FF027
:106640001002EED80DF07AF82178102201F00F0137
:1066500030460DF033F9E7E701480DF0CBB800BF45
:10666000707C0020ACA003005CA40300A8A0030081
:106670002DE9F041444E0023C6E90033C6E9023358
:106680000F46336100297BD001F1FF38412B0446CE
:106690001FFA88F81D462ED0472B2CD04D2B2AD020
:1066A000512B32D1132D0FD127E023685B69984716
:1066B000C0B2212814BF2B46002305F10102F0547B
:1066C00014BF95B20125B84623682046DB6A984777
:1066D00003462046002BE8D1B8F1000F38D0012046
:1066E0000AF028F908F1FF38132D1FFA88F804D8AA
:1066F0007378412BD0D10F2DE6D100237355337819
:10670000212B11D00020BDE8F081422B02D1052DB4
:10671000DAD1F2E7432B02D1062DD5D1EDE74C2B90
:10672000D2D10F2DD0D1E8E7681E345C0123194681
:106730002122715C0133DBB20A448342D2B2194692
:10674000F7DBD343DBB29C4211D1E8B2BDE8F08164
:1067500006F80580002DD5D03278212AD2D1681EC6
:10676000FF23345C0028EED00128EAD0DEE7074999
:1067700007480DF011F80448691CFFF709FFC1E74D
:1067800031700846BFE700BFB8630020B0A0030027
:10679000707C002072DF704773DF704777DF7047CF
:1067A00038B5054608460C4601F00CFC102803D00D
:1067B00080280ED0012038BDEB7F22881B2B0EDCF9
:1067C000E9180320E85448704A80EB7F0433EB77E4
:1067D000F0E76368002BEDD0E97F0D2901DD002093
:1067E00038BD6A18112068540721517058681C6818
:1067F0009968DB68C2F80E30C2F80600C2F80240A1
:10680000C2F80A10EB7F1233EB77012038BD00BFCE
:106810000022C2770270704700B50246D1E902013A
:1068200083B06B4683E8030019461046FFF7B8FFB4
:1068300003B05DF804FB00BFF0B589B00646202226
:106840001348694601F0E0FFF37FC2181D2A0CDDF2
:10685000C3F11D04E4B2E2181D2A4FF00005D8BFB1
:10686000082705DD284609B0F0BD044601250927A3
:10687000F218601CF05469465770901C224610F0C4
:1068800033FAF27F023214442846F47709B0F0BD9F
:10689000E863002010B50446094802F013F8E37FCE
:1068A0001C2B01DD002010BDE2180221E1540A2357
:1068B00090705370E37F0333E377012010BD00BF76
:1068C000E8630020C27F1C2A01DD0020704710B45D
:1068D00003469C18022098540120A1706070DA7F52
:1068E0000332DA775DF8044B704700BF10B4084AF2
:1068F000084C094902620022C0E90A41C0E90C22A1
:106900005DF8044B0270C27742628263704700BF39
:10691000FF0101002000F40020001E00C185704727
:10692000018581854285704780F82210704700BF3D
:10693000F0B5154605EB8503274A89B0044603EBFD
:10694000830300200E469B0011680290CDE904608D
:10695000ADF8143094F821308DF80830CB07CDE92C
:106960000600039009D41D491D4BC87FE77F98811D
:1069700001201C6099609F801060194902AA04F1EF
:106980002000FFF707FF10B1002009B0F0BD94F818
:1069900020101448019101F095FF01990246012051
:1069A000FFF7FCFE0028EFD194F820000121FFF74B
:1069B000F3FE0028E8D10B4801F0DEFF628EA685C9
:1069C00095424FF0010094BF521B921A628684F8E0
:1069D000230009B0F0BD00BFD06300202466002072
:1069E000D4630020E8630020F0B5002361F30F03B7
:1069F0002D4D044661F31F4389B00363FA212846F5
:106A000001F064FFE68D2949278D0868049706EB9D
:106A1000860303EB830300229B000592ADF814303C
:106A200094F8213002928DF80830C307CDE9062290
:106A300003920BD41E4BE27F95F85B029A8005F51A
:106A40000F7501221C609D6098810A60184902AA96
:106A500004F12000FFF79EFE10B1002009B0F0BD48
:106A600094F820101048019101F02CFF0199024682
:106A70000120FFF793FE0028EFD194F820000121B8
:106A8000FFF78AFE0028E8D1074801F075FF638E02
:106A9000A7859E424FF0010094BF9B1BDB1A6386C3
:106AA00084F8230009B0F0BDE8630020D063002023
:106AB000D463002030B50B888D88112B85B0044637
:106AC00005D0262B33D0102B25D005B030BD436A1E
:106AD000EB40DB07F9D52E4801F0BEF80028F4D1D1
:106AE000636A94F82310012202FA05F523EA0503EC
:106AF00063620029E9D194F82230002BE5D0238E7F
:106B000024486386FA2101F0E1FEE28D218D2046C2
:106B1000FFF70EFFD9E7CB7B012BD6D1426A03FAF0
:106B200005F515430023456280F82330CDE70B7A45
:106B3000012BCAD1002380F823304FF4FA71154895
:106B400001F0C4FE238E5BB1658E95B1A36B0BB1D2
:106B50009847658E618D2A462046FFF7E9FEB4E727
:106B6000A36B03B19847618D00222046FFF7E0FE3A
:106B7000ABE7084801F014FF626B002AA5D000952E
:106B800003AB2946284603950CF03CFC9DE700BF6B
:106B900098660020E863002075DF704710B44FF05E
:106BA00010144FF448010022C0E90041C0E902225C
:106BB0005DF8044B704700BF014800F051BE00BFB4
:106BC000B8660020F8B500250D4F2E4601E0142DC3
:106BD00014D0A9B2384601F0B7FE013504460028AA
:106BE000F5D000F0A1FC0028F1D0204600F0A0FC78
:106BF000022804BF0136F6B2142DEAD13046F8BDA2
:106C0000E86300200A881F2A00D0704700B50B46B1
:106C100051F8080F83B049686A4603C29888BDF8E6
:106C20000030ADF802306946FFF7B6FF03B05DF8FB
:106C300004FB00BFAADF7047ABDF7047ACDF7047D3
:106C4000ADDF7047AEDF7047B0DF7047704700BF01
:106C500010B504460DF0FEF8204610BD70B5594B36
:106C600004461B680361061D96B0304601F0B8F972
:106C700094F8263013F0320208BF84F8272013F06E
:106C80000C0208BF84F8282013F030037AD10FAD2E
:106C90000F93C5E90133C5E9033394F8262094F82E
:106CA0002710AB618DF83C200022ADF809209DF83B
:106CB0000A20A0691493012363F342028DF808109F
:106CC0008DF80A2008B1037853BBA37F13B104F1F8
:106CD0001E03129394F8292005960023D207CDE9CC
:106CE000073354BFE389E089ADF81C3058BF18461C
:106CF00004F127010691ADF82000294604F12A038A
:106D00006569099505AA0020FFF794FF054620B99B
:106D1000637F83B9237B002B4DD0284616B070BD0E
:106D2000109010F0E5FE02AB80B2ADF84400ADF873
:106D300046001393C9E7ADF80D009DF80E30224AC6
:106D40000C90012161F34203526894F827100492D9
:106D50008DF80E3004AA02238DF80C1003A90D90B3
:106D6000ADF83030ADF834300A9204F11C030B91C9
:106D70000DF102020AA90E93FFF75EFF0028C9D0A9
:106D80000546CAE7104B94F827101B788DF804309D
:106D90000FAD022200238DF8062094F826200F93D1
:106DA0008DF80510C5E90133C5E90333AB618DF8F2
:106DB0003C2001AB78E72146044800F00DFF28464F
:106DC00016B070BDE4630020D0A00300E86300208B
:106DD0002DE9F0410B888E88502B8AB00C46054671
:106DE00009D0512B04D18B79012B18D0022B26D03E
:106DF0000AB0BDE8F081CB88428D9A4235D0EA8D49
:106E00009A42F5D1EB6C002BF2D095F83C20648AC5
:106E100092077ED42246294630469847E8E7036C1D
:106E2000002BE5D090F83C20520701F1080700F153
:106E300092803A46294630469847A379D6E7A27B06
:106E4000042A4AD0062A20D0012AD1D16B6C002B0B
:106E5000CED095F83C20170704F1080400F1A78074
:106E60002246294630469847C2E7876C002FC6D095
:106E700090F83C30D9075CD404F11208238A4246CA
:106E800029463046B847E388B9E76A6B002AAFD095
:106E9000002202A93046CDE90222CDE90422ADF854
:106EA0000C208DF80830FFF7CFFEAC6C4CB195F894
:106EB0003C30D80700F19C806B8F6A6B30462946C6
:106EC000A0476C6B0BF0DAFA012820467FD009F05E
:106ED0005DFD0023C5E90D338AE7686B002879D092
:106EE000278A628A298F07EB020C00234FF0020EDB
:106EF0008C45CDE90633CDE908338DF818E03ADD4D
:106F000040F20913ADF81C3006A93046FFF79CFE8D
:106F10006EE7032000211A46009006AB0846CDE933
:106F2000066508940CF06EFA00287FF461AFEB6CF4
:106F300070E7218A069604F11208042300933A466A
:106F4000404606ABCDE9088107950CF05BFA0028B6
:106F500099D1AF6C92E703211A46009106AB082144
:106F60003846CDE9066508970CF04CFA00287FF406
:106F700064AF2B6C5DE79DF81EC0ADF81C3004F1CA
:106F800014014CF001033844ADF822208DF81E3076
:106F90000991ADF820700FF0A7FE238A618A6A8FED
:106FA0000B449BB2934238BF13466B87ACE7032177
:106FB0001A46009106AB0E212046CDE906650894DD
:106FC0000CF020FA00287FF413AF6B6C48E70FF049
:106FD00075FE7EE74FF480672F870BF04FFA01288C
:106FE000384616D009F0C0FC002368636B8777E74A
:106FF000686B698F069604230093224606ABCDE9A1
:10700000075009910CF0FEF900287FF45AAFAC6CE0
:1070100052E70FF04BFEE7E72DE9F04F0F464FF632
:10702000FF718F4289B0064615461C4626D0F1896D
:1070300096F826308C4228BF0C46DB0615D40DF19D
:10704000100B8C4228BF0C464FF00008718DADF834
:1070500010405A464FF6FF700595ADF81280FFF7C5
:10706000EDFD404609B0BDE8F08F3948394601F0E2
:1070700053FC08B1F18D31B9F189E0E7344801F0F2
:1070800057FC0746D3E7002002230DF1100BADF8A3
:107090001200ADF810305A460DF10E033846059334
:1070A000FFF7CEFD43F2014398424FD000284AD16A
:1070B0009DF80E8008F00108B8F1000F46D0244872
:1070C000394601F041FC8246A0B300F033FA0338A0
:1070D00083B2002CC5D0CDF804804FF0000998464B
:1070E00005E0BDF80E30E41AA4B21D4444B3504686
:1070F00000F044FAA04503464246594628BF2246BE
:107100003846BBB1ADF80E204FF00102738D8DF8FB
:1071100012200DF10E02CDE90625CDF813908DF861
:107120001790ADF81030FFF78DFD0028D9D05046EC
:1071300000F02EFA4FF00008404609B0BDE8F08F8D
:10714000DDF804808DE700F00108B5E7F18978E704
:10715000E863002070B483B06D4685E806000446FD
:10716000164944F8041B034695E80300144E84E8CE
:107170000500317883F8281003200022142583F8B5
:1071800029001846C3E90D22C3E91022C3E91222DF
:10719000DD8183F83C201A731A619A619A83C3F8DF
:1071A0001E20C3F8222083F826205A615A85DA620D
:1071B0001A8683F8271003B070BC7047E0A0030064
:1071C000D0A003000069704780F82610704700BF08
:1071D000C181704780F8271080F82820704700BFD1
:1071E00090F83C30816462F3000380F83C307047D3
:1071F0008161704751F82A2F0260496841607047E9
:1072000090F8263013F0100301D11846704730B5BE
:10721000044685B011480D4601F07EFB10B1E18DAA
:1072200011B9084605B030BD0DF10603284600240B
:10723000022502AA0393ADF80A40ADF80850FFF703
:10724000FFFC43F20143984206D008B99DF80600BE
:1072500000F0010005B030BD2046E3E7E863002000
:1072600010B490F8264014F0100403D05DF8044BDD
:10727000FFF7D2BE20465DF8044B7047A1DF704790
:10728000A3DF7047A4DF704700238382704700BFED
:10729000806900F0E3B800BF808A70472DE9F041B3
:1072A0000B88CE88382B86B00C46054606D0392B85
:1072B00066D0362B43D006B0BDE8F08100F11C0744
:1072C000002E36D10A8A3846314601F0E3FF94F8A1
:1072D0000C80B8F1010F2CD0B8F1040FEBD1A869E4
:1072E00000F0BCF801465C4801F02EFB00F022F9EA
:1072F0002A8D053883B2934228BF1346002B00F035
:107300009A80218AE289A869AC8A8DF80D600A44C6
:10731000696A05918DF80C80ADF81230ADF8102037
:10732000ADF80E4000F09AF803A9FFF7A9FF002876
:10733000C1D0384601F0C6FF06B0BDE8F0818069D3
:1073400000F08CF80146444801F0FEFA00F0F2F833
:1073500007466EBB05F11C06E289304604F11001B8
:1073600001F098FF2B8D2BB1F81EE38980B2013814
:10737000834255DA304601F0A5FF06B0BDE8F08142
:107380000B7B012B1AD0022B95D1036B002B92D0D3
:1073900090F834208F8892071FD401F11006E289FB
:1073A00031462846984761893846FFF76BFF82E7E8
:1073B00005F11C07384601F085FFBDE7C36A002BC5
:1073C0003FF479AF90F83420D10717D404F11006B8
:1073D000E2893146284698476DE7C989039004F150
:1073E000100603201A46009003AB3046CDE9046135
:1073F0000CF008F80028D6D12B6BD0E7E189039078
:1074000004F1100603201A46009003AB3046CDE984
:1074100004610BF0F7FF00287FF44DAFEB6AD7E76C
:10742000A86900F01BF86A8DA98A92B2FFF726FFBF
:1074300000289FD13FE7AA8AA869ADF80E2040F244
:107440000511ADF80C10CDE9043300F007F803A9DD
:10745000FFF716FF6DE700BFE863002080887047E4
:107460007FDF704786DF70478FDF704790DF7047A0
:10747000B1DF7047B5DF704710B5074B03600446B6
:10748000C0690AF0D9F8206A0AF0D6F8606A08B133
:107490000AF0D2F8204610BDF8A0030010B5094B41
:1074A00003600446C0690AF0C7F8206A0AF0C4F80D
:1074B000606A08B10AF0C0F820460CF0CBFC204608
:1074C00010BD00BFF8A0030070B50446154D10684C
:1074D000A1801721C4F81300256090799588E18078
:1074E0004FF4D816D179A4F81750012222742273D0
:1074F0006076617318461946A6609DF8105009F031
:10750000C5FA2946E061284609F0C0FA00234FF683
:10751000FF722062C4E90A33E28163746362A37478
:10752000204670BDF8A00300007C7047407C704787
:10753000407B7047C0887047008970472DE9F04153
:1075400086B004ACB0F8048016460D4620464FF4D1
:10755000285100F02BFDCDE900564FF6FF770120B2
:1075600094E80C004146CDE90207034800F0D0F949
:1075700006B0BDE8F08100BFE863002008B56621D1
:10758000C06909F0DDFE003818BF012008BD00BF4A
:1075900008B500231A461946C06909F0A9FA00384F
:1075A00018BF012008BD00BFC2898188407B01F05F
:1075B000CFBE00BF70B50B88113B96B00C46054698
:1075C000462B77D8DFE813F08400870047008A0055
:1075D0007600760076007600A100B0007600760096
:1075E0007600760076007600BC00C400CA00D000A9
:1075F00076007600760076007600760076007600DB
:1076000076007600760076007600760076007600CA
:1076100076007600760076007600D30076000201D0
:1076200076007600760076007600760076007600AA
:10763000760076007600760076007600760076009A
:1076400076007600760076007600D600DD007600C3
:10765000E3007800F2000AF011FF01284FF050001B
:1076600000F0D78009F080F9E86218B350220021B9
:107670000FF062FB71496C7BEB6A086800906A4608
:10768000012C0C7914714FF000014FF6FF7003F1DB
:107690001C04029303F13803CDE90643E88118BFC7
:1076A0000A46A888059102ABCDE90311CDE908117E
:1076B000FFF7D6FE16B070BD8B79002BFAD1406A69
:1076C000AB740028F6D01A46194609F011FAF1E712
:1076D00000230374EEE74B890381EBE7502200217E
:1076E00002A80FF029FB218A687B02AA01F04CFE58
:1076F000034600287BD00023A88802A910AAFFF720
:10770000B1FEBDF81A30EB81D4E70B7A002B00F004
:107710008380EC6A0AF0B2FE0128204676D009F098
:1077200035F90023EB62C5E70B7A112B65D1A86A06
:107730000028BFD000231A46194609F0D9F9B9E745
:10774000002302A98088ADF80830FFF78DFEB1E76D
:107750000B7A002BAED14B7A0373ABE700221146B4
:107760008088FFF783FEA5E70B894381A2E74B8959
:10777000C3809FE700231A4619468088FFF778FEEA
:1077800098E7406A0123AB740028D3D192E7417B8C
:107790002B4801F0D1F8E3880146994228BF1946E9
:1077A00089B2A888E980FFF765FE83E78B79002B13
:1077B00080D0002600231A461946E86909F098F996
:1077C0000136A279F3B29A42F4D873E78B7A002B90
:1077D0003FF470AF002600231A461946286A09F0C4
:1077E00087F90136A27AF3B29A42F4D862E7A88800
:1077F0001A461946FFF736FE5CE7C2898188407B4E
:1078000001F0F6FD90B101236B7490E70FF056FA8A
:1078100087E70FF04BFA27E7C26A8188538AC38152
:1078200001234374407B01F07FFD72E7034602466B
:107830000146A888FFF71CFEE5E700BFE7660020C9
:10784000E863002010B50446043001F0C3FC034B8C
:10785000236000232375204610BD00BF0100FFFFF9
:10786000017D01B1704710B50446043001F0BCFC45
:107870000123237510BD00BF007D70470B88322B9C
:1078800010B504D0332B17D0302B08D010BDCB88C7
:10789000DBB1041D2046BDE8104001F013BDCB88CC
:1078A000041D002BF6D14B89002BF3D00A31204662
:1078B0000A2201F0EFFCEDE7CB88002BE9D14A89E1
:1078C000002AE6D002EB420204E04A89002AE0D016
:1078D00002EB82025200041D023292B20A312046AB
:1078E00001F0D8FCD6E700BFA0DF704710B5044612
:1078F00000F5F87001F06EFC2046F82200210FF030
:107900001BFAF822A01800210FF016FA204610BD2D
:107910002DE9F04385B00546BDF83800ADF80C0000
:10792000BDF83C00ADF80E00E8461E48BDF83490A6
:1079300088E80C000F4601F007F805F5F8750646D3
:1079400003E0FFF7F9FD08F0F5FF284601F0A0FC81
:1079500004463046002CF4D10121284601F044FCB5
:107960000C994A46284601F05BFC4146384603AA7A
:10797000FFF7BAFF30B1284601F040FC204605B0C1
:10798000BDE8F0834FF4FA71284601F04FFC20EA7D
:10799000E074284601F032FCA4B2204605B0BDE8F0
:1079A000F08300BFE86300202DE9F04F8F880D8839
:1079B00085B0884604463946864800F0C5FFA5F1E3
:1079C0001003012B814640F2908094F854203AB382
:1079D000002633461633502D54F823A069D0512D7C
:1079E0001AD198F80630B8F808B0022B53D0BBF182
:1079F000000F11D051466846FFF7FCFBBDF8003080
:107A00005B4559D0514602A8FFF7F4FBBDF80C3096
:107A10005B4551D094F854200136F3B29342D9D348
:107A200094F84C31002B00F0D18004F5A6790026A3
:107A300004E094F84C310136B34220DD59F8040FCC
:107A4000FFF726FCB842F4D1382D03D0392D01D0F0
:107A5000362DEED1B8F80AA0BAF1000FE9D0D9F866
:107A600000B05846FFF718FC5045E2D15846414651
:107A7000FFF714FC94F84C310136B342DEDC112DD3
:107A800055D0352D04D1B8F80A30002B40F08F8046
:107A900005B0BDE8F08F98F80E30062BA7D1DAF8C4
:107AA00000305046DB68414698474846FFF73EFDA8
:107AB000B0E7B8F806B09AE7DAF800305046DB686D
:107AC000414698474846FFF731FD0028A2D0502D87
:107AD000A0D1514602A8FFF78DFBBDF80C305B45E5
:107AE00098D14846FFF760FD94E72378002B3FF4D8
:107AF0006CAF0026112D33460CD004EB83033946BE
:107B0000586803685B68984701362278F3B29A4256
:107B1000F3D85AE704EB83033946586803681B68B7
:107B2000984701362278F3B29A42F3D84DE7D3B1A1
:107B30000026334605E094F84C210136F3B29A4210
:107B400011D904EB8305D5F85001FFF7A1FBB8422A
:107B5000F1D1D5F85001FFF797FB013694F84C218D
:107B6000F3B29A42EDD894F8F820002A90D000257C
:107B70002B4604EB8303D3F8FC008388BB420AD076
:107B80000135EBB2934283D204EB8303D3F8FC00BC
:107B90008388BB42F4D103681B689847013594F889
:107BA000F820EBB29342E4D305B0BDE8F08F04F5C2
:107BB000F874B8F80C20204608F1100101F06AFBB7
:107BC000204605B0BDE8F04F01F07CBB112D7FF4DD
:107BD00058AFC8E7E863002090F85420272A0CD853
:107BE00010B4034602F11604013280F8542043F821
:107BF000241001205DF8044B70470020704700BF3F
:107C00000378132B06D800EB8302013303700120A5
:107C1000516070470020704775DF704778DF70470C
:107C20007ADF7047054A034692E80300002283E8A2
:107C30000300C3E902221846704700BF00A10300F9
:107C400008B5FFF7EDFF08B1002008BDFFF7E6FF1C
:107C5000B0FA80F0400908BDF8B500250D4F2E465A
:107C600001E0142D14D0A9B2384600F06DFE0135A4
:107C700004460028F5D0FFF757FC0028F1D0204635
:107C8000FFF756FC012804BF0136F6B2142DEAD1E5
:107C90003046F8BDE86300200A88102A00D07047FB
:107CA000CA7B012A0B46FAD10A8A0188914210B494
:107CB000448804D8A24202D85DF8044B70470146BC
:107CC0005DF8044B9888FFF7A7BF00BF8ADF7047B5
:107CD00030B40D4CC4621F25002250248584A02599
:107CE000C0E91122C0E90F22A0F84650A0F8484090
:107CF000006230BC8262028680F838204263C2642F
:107D0000A0F85020704700BF000180002DE9F04F1F
:107D10008FB002AE304686E80C000C4600F052F9F7
:107D2000C5B2102D4FD0039E07220623A16994F8F7
:107D30001C9001918DF815208DF81430ED080DF18F
:107D400014080DF1160A0027B9F1010F0C97CDE9BF
:107D50000677CDE90877CDE90A77CDF833700ED9EB
:107D600098F8000001994B464A7882420FD00A7871
:107D7000D4432344013213F0FF031144F4D108F13A
:107D80000108C245E0D100200FB0BDE8F08F11F826
:107D9000024B013CE4B2224606A80EF0A5FF0DF10D
:107DA000180B1CB9EBE714F0FF04E8D058462A463C
:107DB00031460EF08BFF641BAB440028F3D1012049
:107DC0000FB0BDE8F08F03220223AFE7F0B50B88B8
:107DD0008D88103B85B00E4604460D2B2CD8DFE86D
:107DE00003F067072B2B2B2B2B2B2B2B2B742B2DE3
:107DF000836AEB40DB071FD54C48FEF7E3FED8B99A
:107E0000A36A94F82C20012606FA05F523EA050555
:107E1000A5628AB994F82D3073B11F232462A3841C
:107E200004F1200104F14400FFF750FF20B940485D
:107E300000F0A2FD84F82C6005B0F0BD90F92E2072
:107E400091F91B309A422CDC90F8383001F1080788
:107E50009BB1002502E0D5B2AB420CD9636B03EBBA
:107E6000C5030CCB39462046FFF750FF94F8383055
:107E70006A1C0028EFD09D4213D094F82F30002BBD
:107E800048D096F82430012B0BD9316A4A78FF2A62
:107E90002FD00A78D0430344013213F0FF0311447A
:107EA000F4D104F120010020FFF710FF05B0F0BD70
:107EB000CB7B022BC0D1836A012202FA05F52B434A
:107EC0000022836280F82C20B6E70B7A012BB3D115
:107ED000002580F82C50164800F062FD226C002A24
:107EE000AAD0009503AB2946284603950BF08AFAE1
:107EF000A2E711F8025B6A1ED2B2022A28BF022250
:107F000003A80EF0F1FE012DCBD0228EBDF80C306F
:107F10009A42C6D1E26B002A8ED0012300933846E4
:107F200003AB242103970BF06DFA85E7A8660020C8
:107F3000E8630020A8DF7047704700BF30B500F14C
:107F4000080185B005460846019100F049F80199FD
:107F50000DF10E020120FFF7EDFF044628B9044B96
:107F600004481D602946FFF74BFE204605B030BD92
:107F7000E4630020E863002030B482B06D4685E8F9
:107F800006000446064944F8081B034695E803002A
:107F9000002184E805001846998002B030BC704783
:107FA00010A1030062DF704763DF704701220023E6
:107FB00001808270436070470023416083700380BA
:107FC000704700BF8378012B08D0426822B9012B8B
:107FD0008CBF8020002070478020704710207047A1
:107FE00083787BB910B50446406868B1A11CFFF7DF
:107FF000D9FF616822461020FFF7D6FFB0FA80F063
:10800000400910BD01207047012010BD4DDF7047B1
:108010004EDF70474FDF704750DF70474BDF7047D0
:1080200010DF70477CDF70477DDF704760DF70478F
:1080300069DF704761DF704766DF704767DF704751
:10804000704700BF04200BF015BB00BF30B5224CB9
:10805000224D83B0D4F808034FF0FF3109F070F9D6
:108060000028F7D0C5B101A8FFF7D8FF0528F1D047
:108070000028F8D1019B032B1BD8012BF3D91846FC
:1080800007F0F6FCEFE70A2B04D0092B21D00B2BCD
:1080900002D1012008F092FA01A8FFF7BFFF0528DE
:1080A000D8D00028F8D1019BA3F10902022AF3D805
:1080B000E9E7A3F10902022AD5D80A2B04D0092B3B
:1080C00005D00B2BCFD1012008F078FACBE70220A6
:1080D000FAE70220DEE700BFE863002071FA020041
:1080E0002DE9F04F2DED028B89B00AF0C7F9012878
:1080F0004FF4FA7000F0808108F036FC0546B14E6E
:1081000005F1080308EE103A06F5587706F5007AEF
:10811000D6F804034FF0FF3109F012F90028F7D028
:108120004FF4FA730DF116012846ADF81630FFF73B
:1081300081FF10B10528F3D1EAE7B5F80490B9F151
:10814000130F00F2378106EB8903D3F814431CB1F7
:1081500029462046FFF72EFA2B88013B1B2B5BD8C4
:10816000DFE813F018015A005A005A005A005A006A
:108170005A005A005A005A005A005A005A005A002F
:108180005A00B5001C005A005A005A005A005A0002
:108190005A005A005A005A005A00A300DFF83882E9
:1081A0004FF0000B58F8040F30B1FFF7BDF918B1CC
:1081B0000BF1010B5FFA8BFBB845F3D1BBF1000F5C
:1081C00006D196F810331BB1594604200BF034FA4F
:1081D0002046FFF7ADF9012800F0EE80D6F8CC225A
:1081E00062B10223CDF81890002195F808C00093E1
:1081F000084606ABCDF81CC00BF004F909F1C40821
:1082000006EB8803586810B103685B68984706EB73
:1082100088080023C8F8043029465046FEF74AFC77
:1082200069482946FFF7D2FDB6F812334B452B8833
:1082300000F0B580102B1ED02CB32046FFF778F944
:10824000012803D161482946FFF726FD2046FFF7A4
:108250006FF902281BD05E48FFF70EFB00BB5948A0
:108260002946FFF7A1FBD6F86833002B3FF458AF3F
:108270002846984754E7EB7B012BDDD1AB88A6F865
:108280001233002CD9D151482946FFF705FD51483A
:108290002946FEF7B7FC4E48FFF7EEFA0028DED07D
:1082A0004B482946FFF7EAFAD9E7D6F86423002AB3
:1082B000B2D0CDF818900223002195F908C00093A0
:1082C000084606ABCDF81CC00BF09CF8A4E74FF0B5
:1082D0000008D6F80C03CDF800804346424603213F
:1082E0003D4C0AF0A7FB54F8040F30B1FFF71CF91E
:1082F00018B108F101085FFA88F8BC42F3D196F88A
:1083000010336BB1B8F1000118BF012104200BF04C
:1083100093F996F810331BB1012104200BF08CF96E
:1083200009F1C40806EB8804606820B103685B6843
:10833000984700236360EB7B012B0BBF96F8F2326A
:1083400096F8F83296F8F34296F8F9420393302003
:108350000BF070FD06EB8808039B009418EE102AC2
:1083600004464946FFF7B0F82046C8F80440FFF736
:10837000DFF8012832D0D6F8C822002A3FF44CAFEB
:10838000012300210093084606ABCDF818900BF0AE
:1083900039F841E700214846FFF74EFE3CE7102B35
:1083A0003FF469AF112B7FF447AF4FF6FF73A6F888
:1083B000123341E70446CFE6D6F8BC22002A7FF408
:1083C00010AF1BE7E8630020446600209866002099
:1083D000B8660020A8660020F8660020D6F8B8220B
:1083E000002A3FF419AF0021009006AB0846CDF8F3
:1083F00018900BF007F80FE70EF058FC05467EE6E4
:1084000038B50446FFF772FA04F50070FEF76EFA0D
:1084100004F50F70FEF7FCF904F51770FFF758FC30
:1084200004F52C70FFF7FEFB04F53070FEF7B6FB89
:1084300004F53470FFF706FA1B481C491C4AC4F8BF
:10844000F4224FF480530025C4F8E83240F20113BF
:10845000C4E9BB01A4F8F8322946A4F8FA5204F59D
:10846000457050220EF068FCC4F8FF5284F80353A4
:10847000D4E9BF304FF6FF720E49A4F812230E4A1A
:10848000C4F80453014003F00E430A4343F044533D
:10849000C4E9BF320121C4E9D955C4E9C25584F801
:1084A0001013204638BD00BF010A17000300010168
:1084B000170003000000FCFC07100303F0B5BD4EDD
:1084C00080F8FC128DB080F8FD2204460AF040FDD1
:1084D0000AF046FD0AF004FD3369B749039303A887
:1084E000FFF79EFD18B1002528460DB0F0BD012014
:1084F000FFF78EFD0120FFF789FD0120FFF78AFDC0
:1085000009A8FFF789FD099B9B0705D5AB4BD3F85D
:108510000435002B00F0FB800023A94A94F8ED52AB
:10852000049209A90120CDE909330B938DF8245059
:10853000FFF77EFD0028D6D194F8FD320B90CDE9EF
:108540000900181E18BF012094F8FC528DF827006E
:10855000049A8DF8263009A940208DF82550FFF7A0
:1085600067FD0028BFD194F8EC120990034661F32F
:108570000003CDE90A00049A8DF8243009A9A0204F
:10858000FFF756FD0028AED1D4F8E8320A900B90E0
:10859000049A099309A9A120FFF74AFD0028A2D156
:1085A00094F8FC32002B40F0B68094F8FD32002B9A
:1085B00048D00023B4F8F472049A0993022509A95B
:1085C0002320CDE90A338DF82450ADF82670FFF74B
:1085D0002FFD002887D1CDE9090094F8FD72B4F889
:1085E000F6320B90049A8DF8245009A920208DF8BA
:1085F0002670ADF82830FFF71BFD00287FF473AF1D
:108600000990CDE90A0094F8F832049A8DF82450C4
:1086100009A922208DF82630FFF70AFD00287FF4F3
:1086200062AFCDE9090094F8F9320B90049A8DF805
:10863000245009A921208DF82630FFF7F9FC0028E5
:108640007FF451AF04A8FFF7F1FC00287FF44BAF93
:10865000CDE9070040F0010307A902208DF81C3086
:10866000FFF7ECFC00287FF43EAF04F52C70FFF719
:10867000E7FA054600283FF436AF337D51498DF8BF
:1086800008300B2202A8FFF7CDFC00287FF42BAFA7
:1086900094F8FD32002B40F0888003220021012055
:1086A00008F0B2F9C4F8040300283FF41CAF05AB8E
:1086B0000326CDE900634449444800234FF4A062F7
:1086C00009F058F932460021012008F09DF9C4F85C
:1086D000080300283FF407AF06ABCDE900633C492F
:1086E0003C480023C82209F045F93B4B4FF4800277
:1086F0001A603A4B00930023184601224FF4807110
:108700000AF042F9C4F80C0300F0E8FDECE60220A0
:1087100007F054FF00E70990CDE90A00B4F8EE3203
:10872000049AADF82630012509A923208DF824509C
:10873000FFF77EFC00287FF4D6AECDE9090094F85F
:10874000FC72B4F8F0320B90049A8DF8245009A909
:1087500020208DF82670ADF82830FFF769FC00283E
:108760007FF4C1AE0990CDE90A0094F8F232049A80
:108770008DF8245009A922208DF82630FFF758FCE7
:1087800000287FF4B0AECDE9090094F8F3320B90E5
:10879000049A8DF8245009A921208DF82630FFF77E
:1087A00047FC00283FF401AF9DE604F53070FEF76A
:1087B00003FA72E76CA103004180020000700240DE
:1087C0000060002058A1030064A10300E1800200C2
:1087D00068A103004D80020000E100E04580020036
:1087E00000B5084B85B01B7D019108468DF80C3013
:1087F0000FF07EF9019982B203A8FFF713FC05B0D0
:108800005DF804FB6CA1030000B583B008460DF1D0
:108810000601ADF80620FFF707FC20B99DF8060019
:1088200003B05DF804FB002003B05DF804FB00BF5B
:1088300070B4234B0E4605460FCB85B06C4607C47B
:108840009DF900202380B24234D09DF90130B3421B
:1088500030D09DF90230B3422CD09DF90330B342A1
:1088600028D09DF90430B34224D09DF90530B3429D
:1088700020D0FEB19DF90730B3421BD09DF90830DE
:10888000B34217D09DF90930B34213D09DF90A3095
:10889000B3420FD09DF90B30B3420BD09DF90C3091
:1088A000B34207D09DF90D30B34203D0002005B08C
:1088B00070BC7047012085F8FE6205B070BC70473F
:1088C00084A1030090F9FE02704700BF30B5054651
:1088D00083B0D0F80C030C460AF0D8F80D4AA40275
:1088E0000146A2FB043200230C46D5F80C0300938A
:1088F000920904210AF09EF80CB103B030BD009437
:10890000D5F80C032346224603210AF093F803B05E
:1089100030BD00BFD34D6210132906D800EB810192
:10892000D1F8140308B1FEF7FFBD0020704700BF67
:10893000B0F81203704700BF01290CBFB0F8EE0277
:10894000B0F8F402704700BF13299ABF00EB810111
:10895000D1F814030020704710B5064C0021D4F85C
:10896000080308F061FBD4F804030021BDE81040BF
:1089700008F05ABBE863002090F8103303B9704741
:1089800010B582B0D0F80C4309F0E4F90023024698
:108990000093204601210AF04DF802B010BD00BF3F
:1089A000F0B583B0002405462346D0F80C030094AC
:1089B000224603210AF03EF805F5447605F558777E
:1089C00056F8040F20B1FEF7AFFD08B10134E4B250
:1089D000BE42F5D195F8103343B1211E18BF0121D5
:1089E000042003B0BDE8F0400AF026BE03B0F0BD9D
:1089F0000148FFF705BD00BFE86300200020704775
:108A0000D0F8C030988980B2704700BF70B582B08E
:108A1000064608461C460192FEF7D4FB019905461E
:108A20002246D0F8C0000BF0E5FA844206D9D5F80A
:108A3000D8301BB1211A89B230469847D5F8D030CA
:108A400023B1304602B0BDE87040184702B070BD97
:108A500008B592B2D0F8C0000BF01AFB08BD00BFF9
:108A600000B583B0D0F8C0000DF1070200210BF073
:108A70004BFB20B19DF8070003B05DF804FB4FF0FD
:108A8000FF30F9E7D0F8C0000BF0A2BAD0F8B03050
:108A9000988980B2704700BFD0F8B0000BF098BA48
:108AA00010B501680C4A8C69944282B00BD1D0F8A1
:108AB000C00001220DF107010BF0EAFA40B19DF868
:108AC000070002B010BD01220DF10701A047F5E734
:108AD0004FF0FF30F5E700BF518A020000B583B0C8
:108AE000D0F8B0000DF1070200210BF00DFB20B112
:108AF0009DF8070003B05DF804FB4FF0FF30F9E785
:108B000010B550F8101C0D4A8C69944282B00CD0FC
:108B1000103801220DF10701A04718B19DF8070098
:108B200002B010BD4FF0FF30FAE701220DF107014E
:108B3000D0F8B0000BF0ACFAEFE700BF518A0200AA
:108B4000F0B583B06D4604460F4628461A49FFF734
:108B500033FA95E806002046FFF70EFA174B18493E
:108B6000002603F108024FF47A704833C4E9043652
:108B7000A06122602846FFF71FFA95E8060004F17D
:108B80002000FEF7E7FA28460E49FFF715FA95E8A8
:108B9000060004F17000FEF7DDFA2046C4E93466F1
:108BA000A4F8C470C4F8C060C4F8D860C4F8C86041
:108BB00084F8CC6003B0F0BDBCA10300CCA10300DD
:108BC000ACA103009CA10300F8B506461B480F4664
:108BD000FFF7BAFEE8B1FEF7ADFCC41E09F04EFC8B
:108BE000A4B20128204617D007F0BEFE054685B185
:108BF000D6F8C800224629460BF04AFAA0B901244B
:108C000009F03CFC012828460AD007F0BFFE2046A8
:108C1000F8BD00242046F8BD0EF048F80546E6E70A
:108C20000EF04CF82046F8BD0346394606F1200008
:108C30002A46FEF715FB0446E2E700BFE863002082
:108C40002DE9F84F0446264890461F460E46FFF78A
:108C50007BFEA0B304F12009054631464846FEF7E5
:108C6000CFFA60B394F8CC300BB3D4F8C800F0B1AD
:108C70001FFA87FA524641460BF0BCF9D4F8C820D7
:108C800003462846B2F80CB01D46FEF753FC1FFA07
:108C90008BFB0338834506DB20463146FFF794FF04
:108CA00068B1BD420FD33D462846BDE8F88F424625
:108CB00031464846BBB2FEF7D3FA0028F3D100256F
:108CC0002846BDE8F88FAAEB05039BB208EB050226
:108CD00031464846FEF7C4FA0028F1D0E3E700BF6A
:108CE000E86300202DE9F04150F8103C82B00446C2
:108CF00029489E6A8DF80710FFF71AFE274B9E42FF
:108D00000546A4F11007014607D0384601230DF1AE
:108D10000702B04702B0BDE8F0811F48FFF714FE1C
:108D20000646F8B104F1100840462946FEF768FAF5
:108D3000C0B194F8BC303BB3D4F8B80020B30DF107
:108D4000070101220BF056F9D4F8B82092890346A6
:108D500030461C4696B2FEF7EDFB0338864203DA36
:108D60000120D7E70020D5E738462946FFF72CFF3A
:108D70000028F7D0002CF3D10DF107022946404618
:108D80000123FEF76DFAC5E72946404601230DF1A0
:108D90000702FEF765FABDE7E8630020418C020098
:108DA0002DE9F04F50F8103C044681B02D48D3F81F
:108DB000289088461746FFF7BBFD2B4B9945054683
:108DC000A4F1100608D001463B4642463046CC4648
:108DD00001B0BDE8F04F604701462248FFF7B4FDFF
:108DE0008346D0B304F1100948462946FEF708FA35
:108DF00098B394F8BC3043B3D4F8B80028B31FFA42
:108E000087FA524641460BF0F5F8D4F8B8309B8902
:108E10000246584614461FFA83FBFEF78BFB0338C5
:108E2000834510DB30462946FFF7CEFEA8B1A742A6
:108E300009D9AAEB04039BB208EB04022946484671
:108E4000FEF70EFA50B13C4608E042462946484635
:108E5000BBB2FEF705FA0028F5D10024204601B088
:108E6000BDE8F08FE8630020418C02002DE9F0415D
:108E70000568294BAD6A82B09D428DF8072041D12B
:108E8000044626480E46FFF75FFD054660B304F131
:108E9000200738463146FEF7B3F928B394F8CC30B2
:108EA00033B3D4F8C80018B30DF1070101220BF059
:108EB000A1F8D4F8C8309B89804628469DB2FEF7B9
:108EC00039FBC31E9D4224DB20463146FFF77CFE62
:108ED00050B1B8F1000F1CD10DF1070231463846F0
:108EE0000123FEF7BDF900E0002002B0BDE8F081EB
:108EF0003146384601230DF10702FEF7B1F902B001
:108F0000BDE8F08101230DF10702A84702B0BDE8DA
:108F1000F0810120E9E700BF418C0200E8630020F6
:108F20002DE9F041036882B004462A489E6A8DF814
:108F30000710FFF7FDFC284B9E42054601463FD136
:108F40002448FFF701FD064660B304F120073846C8
:108F50002946FEF755F928B394F8CC3033B3D4F84A
:108F6000C80018B30DF1070101220BF043F8D4F843
:108F7000C8309B89804630469EB2FEF7DBFAC31E9E
:108F80009E4225DB20462946FFF71EFE50B1B8F170
:108F9000000F1DD10DF10702294638460123FEF7C7
:108FA0005FF900E0002002B0BDE8F08129463846B4
:108FB00001230DF10702FEF753F902B0BDE8F0817D
:108FC000204601230DF10702B04702B0BDE8F08151
:108FD0000120E8E7E8630020418C02002DE9F04F12
:108FE000036881B004462F489E6A88461746FFF7FB
:108FF0009FFC2D4B9E4205464AD101462948FFF76A
:10900000A3FC064600283ED004F120094846294624
:10901000FEF7F6F8B8B394F8CC3063B3D4F8C800D0
:1090200048B31FFA87FA524641460AF0E3FFD4F8E4
:10903000C82003463046B2F80CB01E46FEF77AFA56
:109040001FFA8BFB0338834510DB20462946FFF7C8
:10905000BBFDC0B1B74209D9AAEB06039BB208EB2E
:10906000060229464846FEF7FBF868B13E46304600
:1090700001B0BDE8F08F424629464846BBB2FEF734
:10908000EFF80028F2D10026304601B0BDE8F08F9D
:1090900001463B4642462046B44601B0BDE8F04F8B
:1090A000604700BFE8630020418C020010B50A4B06
:1090B0000446D0F8C80023604033236110B1036830
:1090C0005B68984704F17000FDF7C0FD04F12000D3
:1090D000FDF7BCFD204610BDD4A1030010B50C4B1C
:1090E0000446D0F8C80023604033236110B1036800
:1090F0005B68984704F17000FDF7A8FD04F12000BB
:10910000FDF7A4FD20460AF0A5FE204610BD00BFD5
:10911000D4A1030070B5044682B018200AF08AFE7C
:109120000022054601210AF02BFF2846B4F8C4109E
:10913000C4F8C0500AF036FF2046FEF7FFFE054691
:1091400010B1284602B070BD01211E48FFF7F4FBA4
:1091500004F1200603461021304601961E46FEF714
:1091600033F82A4601981121FEF734F80198314668
:10917000FEF72EF801981449FEF73AF80198FDF72A
:109180006DFD05460028DCD104F170000C21019032
:10919000FEF71AF801980D490122FEF721F8112275
:1091A00001982946FEF716F801983146FEF710F8A7
:1091B00001980749FEF71CF8019802B0BDE870401D
:1091C000FDF74CBDE863002094A103000D8A020066
:1091D00098A10300002201214270C0E90122017020
:1091E000C2818281704700BF10B50446017001B191
:1091F00010BD0A2007F04AFC606010BD037810B56E
:10920000044643B1002301226370C4E90133E381C2
:10921000A381227010BD406808F00EFAF2E700BF8B
:10922000002381608281C381704700BF037870B5DD
:1092300004460D4693B94068144BA902A3FB0131C3
:1092400001238909637008F07BF890B92378002620
:109250004FF0FF3566709BB9284670BD0322002190
:10926000012007F0D1FB60600028E5D14FF0FF3509
:10927000F2E7E58923780026ADB26670002BEBD0CB
:10928000606808F0D9F96660284670BDD34D621059
:109290004078704738B504468089824228BF02462C
:1092A000154619B1A0680DF01FFDA089E389A268D9
:1092B00015FA83F3401B9BB22A44A081E381A2608C
:1092C000284638BD406820B100231A46194607F0E9
:1092D0000FBC7047B1DF7047B2DF704708B50F4869
:1092E00006F052FA0E490D4800F018FE28B10D495B
:1092F0000A4800F013FE50B108BD0949074800F0C4
:1093000029FE0849054800F009FE0028F4D1BDE80F
:1093100008400449014800F01DBE00BF546700200A
:1093200030A2030044A2030070B586B003231446A4
:1093300006460D460093104603AB044A059450219F
:10934000CDE903650AF05EF806B070BDD194020065
:1093500030B54FF6FF739A4287B014460ED00246DE
:109360000D4603230021009303920846054A03ABF0
:10937000CDE904540AF046F807B030BD002007B02C
:1093800030BD00BFE595020070B5164D164EA0B079
:109390000C46134601280CBF314629462246684632
:1093A0001D460EF05FFB114B694607A8002201F035
:1093B0003FF807A801F0D8F818B90024204620B0DB
:1093C00070BD044607A800F0CBFE5028F5D1024638
:1093D000294607A800F056FF07A800F0ADFF204679
:1093E00020B070BD74A2030058A20300546700208F
:1093F000F0B54FF6FF73A3B09A4200AF5DD0314B8A
:109400000C463149012818BF194607F108000EF033
:1094100029FB2E4B07F10801002207F1240001F07F
:1094200007F807F1240001F09FF86D4648B90024C1
:1094300007F1240000F080FF2046AD468C37BD4682
:10944000F0BD07F1240000F08BFE061E08DD07F1D9
:10945000240000F055FF311807F1240000F032FF1E
:1094600007F1240000F07CFE061E08DD07F1240051
:1094700000F046FF311807F1240000F023FF07F148
:10948000240000F06DFE0028D1DDC31D23F007038A
:109490006E46ADEB030D82B2694607F124007A6097
:1094A00000F0F0FE204669467A680323FFF712FFBA
:1094B000B0FA80F46409B546BAE7002420468C3738
:1094C000BD46F0BD74A2030058A2030054670020FB
:1094D000F0B51446AFB0012804AF0D4607BF528A5D
:1094E0003B493C49E28D07F108000EF0BBFA3A48CF
:1094F00007F108016E4600F011FD00284BD1364BF4
:1095000007F1080107F14400012200F091FF07F183
:10951000440001F029F818B9AC37B546BD46F0BD96
:10952000502107F1440000F049FE5022214607F186
:10953000440000F081FD002329462848FB62C7E96A
:109540000933C7E90C33C7E90E333B64FFF7FCF975
:1095500007F124012022FDF7F1FF97F8243003B32F
:1095600007F124000EF0C4FA013082B2C1B207F153
:1095700044007A6000F022FE7A6807F1240107F1C6
:10958000440000F059FD07F1440000F0D5FEAC376F
:10959000B546BD46F0BD07F108010F4800F032FDA9
:1095A000ADE794F8491094F84D3094F84E200391AB
:1095B00094F84A10029194F84B10019194F84C10D1
:1095C000009107F1240006490EF04CFAC8E700BFED
:1095D00058A2030074A2030054670020E86300202F
:1095E00090A203002DE9F043A3B00C4600AF002188
:1095F0000323054616462046BA1DF980FFF76CFE88
:10960000FB88E84623B98C37C546BD46BDE8F083E4
:109610000733DB08A8EBC3039D462046BA1D694605
:109620000323FFF759FEE94604460028EBD1284BF7
:1096300028493246012D18BF194607F108000EF0DF
:1096400011FA254B07F1080107F12400012200F06F
:10965000EFFE07F1240000F087FF0028D3D0214659
:1096600007F1240000F02EFE07F1240000F078FD41
:10967000041E08DD07F1240000F042FE211807F166
:10968000240000F01FFE07F1240000F069FD041E15
:1096900008DD07F1240000F033FE211807F1240053
:1096A00000F010FEFC8807F12400E1B200F086FD16
:1096B0002246494607F1240000F0BEFC07F12400D1
:1096C00000F03AFE8C37C546BD46BDE8F08300BFCA
:1096D00074A2030058A203005467002070B504462A
:1096E000C3F38100C3F38116FF2B0D466074C3F3EF
:1096F000011103F00300A0748CBF002301238E42EC
:109700000CBF0320042015FB00F080B2237000235F
:10971000E6742174A0806370237263610121164690
:109720000DF05EFAE06018B16580E680204670BDFD
:10973000C4F80200F9E700BF10B50446C0680DF098
:10974000BDFAB4F90600002802DB002109F034FF5D
:10975000204610BD10B50446B0F90600002807DB0E
:10976000012109F029FFB4F90600002109F064FF86
:109770000123637010BD00BFC368002B00F061823D
:109780002DE9F04F2DED028B4769AD4CAD4EAE4D3E
:1097900095B0834620E02B68D90720D56B689B09DC
:1097A000BB420BD2E368DA0140F1D2802B68DB07C1
:1097B00040F1CE806B689B09CBF81430E368DF0181
:1097C00015D52B68D80712D56B68DBF814709B0988
:1097D000DB1BB3F5967F17D2E368D801DBD408F022
:1097E000B9FAA0FB0601830A43EA8153D8E708F0DF
:1097F000B1FAA0FB0601DBF81470830A43EA815337
:10980000DB1BB3F5967FE7D3904BBBF804400FCB3F
:1098100014AD05E90F00DDF84090D9F8003523B903
:10982000D9F86035002BC0F2D280DDF84490D9F829
:10983000003523B9D9F86035002BC0F2D281DDF8AC
:109840004890D9F8003523B9D9F86035002BC0F21B
:10985000D881DDF84C90D9F8003523B9D9F86035B6
:10986000002BC0F2DE8109F061F9794BBBF90620CB
:1098700053F822301F2B7CD9203B4FF00109DFF831
:10988000D88109FA03F96E496F4CCB689BF8000048
:10989000704A43F08073CB602368002843F00103D3
:1098A000236014BF5823C323039342F0010315BF61
:1098B00012271A272926462614BF47259C250493DC
:1098C000CDF804B0019BB3F804B0D3F80CE06368A2
:1098D0000293BBF1000F53D00BF1FF3A1FFA8AFA43
:1098E0000AF1010AF24400221EF801CB082080216F
:1098F00063689B1AAB42FBD36268D8F808351CEA50
:10990000010F43EA0903C8F8083529D063689B1A98
:10991000B342FBD3D8F80C35013843EA09034FEAC8
:109920005101C8F80C35E3D1D645DDD1039B03FBCB
:109930000BF1C90063689B1AAB42FBD36368029AC0
:109940009B1A8B421FD3049B4FF496409847B9E76C
:1099500008F000FAA0FB0601830A43EA81532BE7D3
:1099600063689B1ABB42D5D263689B1ABB42F7D38C
:10997000D0E74FF0010909FA03F94FF0A04882E758
:1099800059465A46D6E7DDF804B009F0D9F82C4B11
:10999000DB68D9010CD52C4B1A68D20708D55B6857
:1099A0009B09CBF8143015B0BDEC028BBDE8F08FED
:1099B00008F0D0F9234BA0FB0301830A43EA81534B
:1099C000CBF8143015B0BDEC028BBDE8F08FD9F8A0
:1099D0006435002BBFF629AFD9F86835002BBFF6E8
:1099E00024AFD9F86C35002BBFF61FAF2401231D1F
:1099F00008EE103A08F042FD012800F0798118EED7
:109A0000100A06F0B1FF8246BAF1000F3FF42BAF07
:109A1000BBF80430002B00F07181DBF80C300293AE
:109A20009BF8003001930023CDF83C90082548F2C4
:109A3000060848F2080E48F2130C99465AE000BF97
:109A4000F0ED00E040420F00001000E0B0A2030083
:109A5000E8A50300C0A203000003005013F0800F2C
:109A60000CBF7446644613F0400F2AF812400CBF36
:109A700070466046039C059F13F0200F0CBF714693
:109A800061462AF8170013F0100F2AF81410079CEB
:109A90000CBF764666462AF8146013F0080F069C41
:109AA0000CBF724662462AF8142013F0040F049A81
:109AB0000CBF704660462AF8120013F0020F089A95
:109AC0000CBF714661462AF8121013F0010F099A73
:109AD00014BF634673462AF81230BBF8041009F12C
:109AE00001091FFA89F205F1080391429BB240F285
:109AF000A9801D46E91E89B2AA1E6B1E92B29BB2B6
:109B00000491E91E89B208920993AA1E6B1E9BB2AA
:109B10000C9191B26C1F281F0D910E9302991FFAA0
:109B200089F3A4B280B2EF1FAE1FBFB2B6B2CB5C56
:109B3000079406906C1F281F019905970396EF1F45
:109B4000AE1FA4B280B24FEAC902BFB2B6B20A9445
:109B50000B9092B2002981D048F20D0013F0800FD3
:109B600014BF0146414613F0400F0391014608BF60
:109B7000404613F0200F14BF0C46444613F0100F5C
:109B800008BF4146049103992AF812102AF81700D9
:109B90002AF816400A9C049E2AF8146013F0080F55
:109BA00048F20D010B9C14BF0A4642462AF81420C5
:109BB00013F0040F0C9A14BF084640462AF812000E
:109BC00013F0020F0D9A0F4608BF41462AF81210F3
:109BD00013F0010F0E9A0CBF43463B462AF8123091
:109BE0007BE7D9F86435002BBFF629AED9F8683584
:109BF000002BBFF624AED9F86C35002BBFF61FAE94
:109C0000F4E6D9F86435002BBFF623AED9F86835F1
:109C1000002BBFF61EAED9F86C35002BBFF619AE7F
:109C2000E4E6D9F86435002BBFF61DAED9F86835E7
:109C3000002BBFF618AED9F86C35002BBFF613AE6B
:109C4000D4E670476A1C92B2DDF83C9052000AEBF1
:109C500045034FF400401880019B2AF802000021C0
:109C6000C9F80415C9F80C15D3BB2823C9F8083561
:109C700018EE103ABBF90610234A58080023C9F819
:109C80001435C9F81035C9F820A5C9F82405C9F854
:109C90002835C9F82C3552F82120C9F86025012251
:109CA000C9F80025C9F81031C9F80820D9F81031D1
:109CB0002BB90AF0F9F8D9F81031002BF9D00023AC
:109CC0004FF0FF32C9F81031C9F80035C9F86025E6
:109CD00008F0D4FB012807D0504606F057FE56E6A0
:109CE0001423C9F80835C3E750460CF0E7FF4EE6E9
:109CF00018EE100A0CF0DAFF824685E69BF8003079
:109D0000019302225346A4E7E8A503002DE9F04F92
:109D10004688964285B057D9002B58D013449DB23F
:109D2000B54228BF354695424ED9C1F3072301936A
:109D30000B0EC1F307485FFA81FECDE9023302EB57
:109D4000420491001FE0CA45764642D0C368DDF860
:109D500004C0DDF80CB0CDF800800B4403F809B066
:109D600090F810A0009F03F80A70477C03F807C022
:109D7000877CDE55013292B2AA4204F1030401F15C
:109D8000040121D246889642F4D9037A90F81390C0
:109D900090F810A0002BD6D0019E03FB08F706FB1D
:109DA00003FCC7F3072703FB0EF6D1450097CCF35E
:109DB000072C4FEA162610D0029F07FB03FBC3684F
:109DC000CBF3072B0B44C9E705B0BDE8F08F354650
:109DD000ABE7DDF804C0CDF80080C3682344C1E7D9
:109DE00030B4037A4D1CEDB2AB421CD0013B13F0F2
:109DF000FF03C46819D0FF2916BF29024FF6FF716F
:109E000001F1FF31B1FBF3F18388002253B12378D4
:109E100001FB03F31B1204F8013B0132838892B269
:109E20009342F4D8057230BC70471946ECE700BF86
:109E3000704700BF10B504460AF00CF8204610BD6C
:109E400038B50A4B04460D46442240F80C3B00212D
:109E50000CF072FF0023A560237104F1540101206E
:109E600006F0F6FF2065204638BD00BFD0A20300F3
:109E700070B504460E46006D4FF0FF3107F060FAF2
:109E8000257955B98EB1A660314604F10C0005F074
:109E9000D5FAB0FA80F56D0925710023206D1A46B8
:109EA000194606F025FE284670BDA668002EF4D09F
:109EB000EAE700BF70B505464FF0FF31006D07F0CF
:109EC0003FFA2B7993B1002305F10C062B71304634
:109ED00005F0C8FB044680B10023286D1A461946D8
:109EE00006F006FEB4FA84F0400970BDA96805F1D9
:109EF0000C0004F043FE0446EEE7A968304604F087
:109F00003DFE04460028E7D1A968304605F096FAE0
:109F100004460028E0D101232B71DDE730B504466B
:109F200095B00D46006D4FF0FF3107F009FA294654
:109F300001AA04F10C0004F0F5FB002302461946C7
:109F4000206D14461A4606F0D3FDB4FA84F0400999
:109F500015B030BD2DE9F04F83B00B7800AF2F2B3B
:109F600078600CBF4C1C0C4606460D46006D4FF049
:109F7000FF3107F0E5F906F10C084FF0000917E092
:109F8000ADEB030D68468B4500F8019BEA4601DD09
:109F90000CF0D2FE29465A4650460CF0A5FE51461A
:109FA000404603F0ADFC08B1113028D10134B5466C
:109FB00020462F210DF076FDA0EB050B0BF10803D9
:109FC0006E460021044623F007035A460028D7D1E5
:109FD0002946404603F094FC60B901247A680023C6
:109FE000106D19461A4606F083FD20460C37BD4613
:109FF000BDE8F08F113014BF00240124EEE70024E7
:10A00000B546EBE738B504460D46006D4FF0FF311D
:10A0100007F096F9294604F10C0004F0DBFB00235D
:10A0200002461946206D14461A4606F061FDB4FA40
:10A0300084F0400938BD00BF036970B504460D4681
:10A04000186D4FF0FF31164607F07AF9237D4BB1BA
:10A05000002522690023106D19461A4606F048FDB6
:10A06000284670BD2069A1692A4633460C3003F0AA
:10A070000DFF20EAE075ECE770B50369044682B095
:10A08000186D4FF0FF3107F05BF9267D4EBB20695C
:10A09000A1690C3004F038FB05462069A1698DF8F0
:10A0A000076001230DF107020C3004F079FA002853
:10A0B0002069A169C8BF9DF807602A4600F10C001D
:10A0C0004FF00003D8BF4FF0FF3604F0EDFA2269DD
:10A0D0000023106D19461A4606F00AFD304602B0FC
:10A0E00070BD4FF0FF36F2E738B5036904464FF014
:10A0F000FF31186D07F024F9237D4BB1002522694B
:10A100000023106D19461A4606F0F2FC284638BDA9
:10A110002069A1690C3004F0F9FA05462069A169AB
:10A120000C3004F0F1FA2D1AE9E700BF036910B50D
:10A1300004464FF0FF31186D07F002F9237D43B15B
:10A1400022690023106DBDE810401A46194606F03A
:10A15000CFBC2069A1690C3004F0FEF8F0E700BF25
:10A1600030B50369044683B0186D4FF0FF3107F036
:10A17000E7F8257D55B122690023106D19461A466E
:10A1800006F0B6FC4FF0FF3003B030BD2069A16986
:10A190000DF1070201230C3004F002FA23692A466C
:10A1A00004462946186D2B4606F0A2FC002CCCBFB5
:10A1B0009DF807004FF0FF3003B030BD30B50368A5
:10A1C000164A5B6883B093428DF807101ED103696D
:10A1D00004464FF0FF31186D07F0B2F8237D53B1FC
:10A1E000002522690023106D19461A4606F080FCEE
:10A1F000284603B030BD2069A1690C3001230DF160
:10A20000070203F043FE20EAE075EAE701220DF1C0
:10A21000070198470546284603B030BD39A0020023
:10A2200070B504460D4608F029F901284FF02C00BE
:10A2300020D006F099FB0146A16131B123692A467D
:10A2400003F10C0003F034FD08B1002070BD0123C0
:10A25000237528460DF04CFC461C08F00FF9012828
:10A2600030460BD006F080FBE06129460DF027FC5C
:10A27000012070BD0CF01AFD0146DDE70CF016FD63
:10A28000F2E700BF036970B504460D46186D4FF044
:10A29000FF31164607F054F8237D4BB100252269A3
:10A2A0000023106D19461A4606F022FC284670BDA0
:10A2B0002069A1692A4633460C3004F071F905463D
:10A2C000EDE700BF38B5036904460D46186D4FF041
:10A2D000FF3107F035F8237D4BB1002522690023BB
:10A2E000106D19461A4606F003FC284638BD206951
:10A2F000A1692A460C3004F0D7F9C543ED0FEDE70C
:10A3000038B5036904464FF0FF31186D07F018F8AF
:10A31000237D4BB1002522690023106D19461A4692
:10A3200006F0E6FB284638BD2069A1690C3004F030
:10A33000EBF90546EFE700BF036970B504464FF03F
:10A34000FF31186D06F0FCFFA169D1B12069237DB2
:10A350000C30FBB103F0D4FCA56908F08FF801289C
:10A36000284624D006F012FBE5690023A36135B12D
:10A3700008F084F8012828461FD006F007FB0023C8
:10A38000E36122690023106DBDE870401A4619464A
:10A3900006F0AEBB04F062F8A56908F06FF801287A
:10A3A000284607D006F0F2FA0023A361E9E70CF093
:10A3B00085FCD9E70CF082FCF6E70CF07FFCDEE7C9
:10A3C000816951B338B5037D044600690C30BBB1D7
:10A3D00003F096FCA56908F051F8012828461DD025
:10A3E00006F0D4FAE5690023A36135B108F046F818
:10A3F0000128284618D006F0C9FA0023E36138BDC9
:10A4000004F02CF8A56908F039F80128284608D08E
:10A4100006F0BCFA0023A36138BD70470CF04EFC77
:10A42000E0E70CF04BFCF5E70CF048FCE5E700BF7B
:10A43000F0B504460025C4E906554A48236120606A
:10A4400084F820504FF47A700E46A06095B0186DD5
:10A45000656025754FF0FF313546164606F070FFF2
:10A46000A36913B12046FFF7ABFF206901AA0C30A6
:10A47000294604F057F990B99DF80430112B3FD0CC
:10A4800029462046FFF7CCFE60BB22690023106DF1
:10A4900019461A4606F02CFB204615B0F0BD0230D6
:10A4A000F3D1012EF1D107F0E9FF01284FF0380078
:10A4B0004BD006F059FA0146A1610029E5D0236985
:10A4C0002A4603F10C0040F2031303F02DFC06466C
:10A4D0000028DAD12069A1690C300223324604F049
:10A4E000E3F826752F2128460DF01DFB034604F1E5
:10A4F000200003B15D1C294640220DF001FBC4E79A
:10A5000026B1012EEED140F2031700E0012707F03B
:10A51000B5FF01284FF0380013D006F025FA0146A8
:10A52000A1610029B1D022693B4602F10C002A4604
:10A5300003F0FAFB0028A8D1012E0AD000232375CE
:10A54000D0E70CF0B3FB0146EAE70CF0AFFB0146A5
:10A55000B2E72369A169024603F10C00022304F06B
:10A56000A3F8EBE7E0A203008069003818BF0120E0
:10A57000704700BF2DE9F04F85B0DDE90E4B109F0D
:10A5800081460D4690461E46002F63D0B8F1000F5D
:10A5900003D0D8F80030B34249D0D9F800002B6876
:10A5A0009E422BD04369B4FBF3F203FB1242BAB9CB
:10A5B000BB4215D8B7FBF3F203FB127AA7EB0A03F1
:10A5C00000930393436822461F4631465B46B847D3
:10A5D00088B9039B57469B441C44002FD6D139E0D1
:10A5E0000093A21AC5E90062D0F804A0AB68314616
:10A5F000D0470028CAD005B0BDE8F08F696843692C
:10A60000A142D0D8CA18A242CDD9A2EB040ABA45B9
:10A61000AB6828BFBA46611A524658461944BF1A59
:10A6200054440CF061FBD344002FAFD112E0D8F8B2
:10A630000430A342B1D8D9F8000082691A44A2427A
:10A64000ADD9A2EB040ABA45D8F8081028BFBA461B
:10A65000E31AE1E7002005B0BDE8F08F2DE9F04FE7
:10A66000074687B00D4672B30368D1F800B0904634
:10A670009A69D1E901104AB3013A01F1010986183A
:10A68000A9EB0009441E4FF0010A08E014F8012F5D
:10A690009DF817309A4223D1A6423B6814D01A6A1B
:10A6A000934509EB040320D20DF11702CDE90032E6
:10A6B000CDF808A05B46002241463846FFF75AFF16
:10A6C0000028E3D009DB3B68A8689A69FF210CF0F9
:10A6D00033FB4FF0FF332B60002007B0BDE8F08F55
:10A6E0006FF0330007B0BDE8F08F034B034A044816
:10A6F00012210CF057FA00BFFCA2030030A50300A2
:10A700001CA303002DE9F04F87B0DDF840A00592AF
:10A71000002B64D0D0F800908B46D9F81C105C1E3A
:10A72000A1F108084445074651D3B4FBF8F00138BD
:10A730000CF01EFAD04500F10200A4EB8003B3FB3D
:10A74000F8F560D8BAFBF8F001380CF011FA861C65
:10A75000AAEB8606B6FBF8F630460CF009FAAAEB2F
:10A76000800006FB180AB54243D9D9F82020059B82
:10A770004FF004090DF114080BE0012B45D93A689C
:10A78000126A934241D8012101FA04F42D1BB5420B
:10A7900030D9AC1BB4FA84F495FAA5F1C4F11F04C6
:10A7A000B1FA81F18C4228BF0C4693424FEA8401F2
:10A7B00032D20091CDE90189002259463846FFF78F
:10A7C000D9FE059B0028D8D007B0BDE8F08FD04552
:10A7D00088BF1346BAFBF8F00CD80025B4E71199EE
:10A7E0004FF0FF320A60129A1846136007B0BDE8B6
:10A7F000F08F059B119A1360129B0020C3F800A0F4
:10A8000007B0BDE8F08F0026ADE7064B064A0748C3
:10A810004FF48F610CF0C6F9054B064A034812212C
:10A820000CF0C0F99CA3030050A503001CA3030077
:10A83000FCA2030030A503002DE9F04F89B00746C4
:10A84000149C129D8B4692461E46002C55D0DBF878
:10A850000030B3425CD0013340F0A1803868826997
:10A86000B5FBF2F302FB1353002B4AD1A24248D8A6
:10A87000B4FBF2F302FB13430593E31A0093049332
:10A880008468139B2A463146A04700287ED1BAF13E
:10A89000000F29D0049B3BB3139B5C1E049B04EB6D
:10A8A0000309139B05F10108A8EB030807E014F85E
:10A8B000012F9DF81F309A4266D14C4514D03B6859
:10A8C0001A6A964208EB040363D2012202920DF148
:10A8D0001F02CDE900325146334600223846FFF7C9
:10A8E00049FE0028E3D051DB139A049B059C1146D6
:10A8F000194413911D44002CA9D1002009B0BDE8D2
:10A90000F08FEB1ACBE90063DBF80030B342A2D141
:10A91000DBF80410A9429ED83A6892690A44AA4218
:10A9200099D9A2EB0508A045DBF8080028BFA0468E
:10A93000691A0844424613990CF0D6F938681399FD
:10A94000826945444144B5FBF2F302FB1353A4EB87
:10A9500008041391002B7FF478AFDBF800104B1C38
:10A960003FF473AF0092DBE90123D0F80880C047C1
:10A9700060B9524659463846FFF770FE00283FF44A
:10A9800064AF09B0BDE8F08F6FF0330009B0BDE8E7
:10A99000F08F064B064A074812210CF003F9064BCC
:10A9A000064A0448B7210CF0FDF800BFFCA20300E2
:10A9B00030A503001CA30300C8A3030040A50300A7
:10A9C0002DE9F04F0446D2E9003091B04FF0010B71
:10A9D0000A9300230B90069104F114080DF1280945
:10A9E0000593236859F8045B1B6A9D427BD21023B0
:10A9F0000DF1300A0022CDE901A300922B46414619
:10AA00002046FFF7B7FD002839D1059B002B60D108
:10AA10000D9B23F00043132B4FD92268D269934238
:10AA20004BD84FF0FF3309A810225146099304F088
:10AA300037FE0D9B23F00043102B28D0CDF81C903F
:10AA400010260DF12307994607E001360122394609
:10AA500009A804F025FEB14517D023681B6A9D4262
:10AA600041D20123CDE9017300962B4600224146D5
:10AA70002046FFF77FFD0028E7D0DDF81C9010F19D
:10AA8000340F1AD011B0BDE8F08FDDF81C90099B8F
:10AA90009BB99AE80F000BF0010610AF07EB860C8C
:10AAA000069F1026FE603E467D601C365CF8185CF2
:10AAB000BD6086E80F0001230593BBF1020F0FD1A3
:10AAC000059B002B14BF00206FF0330011B0BDE8D0
:10AAD000F08F069A0C9BD2699B1A002B98DAECE750
:10AAE0004FF0020B7DE7034B034A044812210CF0A0
:10AAF00059F800BFFCA2030030A503001CA303000B
:10AB00004368013337D02DE9F0438368013383B0C4
:10AB1000044628D015460E464FF000084FF00109B4
:10AB20006A462946CDE90089FFF74AFFE0B905F1F9
:10AB300024086B6A591C16D0AF6A7A1C13D0D6F859
:10AB400000C09C4513D0D6F804E0BE450FD0734535
:10AB50004246294620460AD0BC4508D0FFF730FFC0
:10AB60000028E6D000E0002003B0BDE8F08301201B
:10AB700003B0BDE8F0830020704700BF2DE9F0412D
:10AB8000D1F820C00C46C9682CF00043043B01F109
:10AB90000C069E4284B0054617461FD904F12408CE
:10ABA000102612E0424621462846FFF709FF90B9D9
:10ABB000D4F820C0A169E6602CF00043043B1431B6
:10ABC0001B2BA1614FF0100108D8BCF1000FE9DB8D
:10ABD00039606FF0010004B0BDE8F0812A46636877
:10ABE00052F8140B066AB34207F104001AD20C267D
:10ABF000CDE900100296114628460022FFF7BAFC64
:10AC00000028E8D17B79BA79FD79A169043313442E
:10AC1000E2683A602B441A440B44E260A36104B03A
:10AC2000BDE8F081024B034A034812210BF0BAFF42
:10AC3000FCA2030030A503001CA30300F0B593B0F1
:10AC400000260D46012707A96A46CDE9006704469C
:10AC5000FFF7B6FE064610B121E0831C22D1109BFF
:10AC600001331CD0119B013319D010AA07A920462B
:10AC7000FFF7A6FEB0B903AA07A92046FFF77EFF9B
:10AC80000028EAD19DF91030002B4FF00802294628
:10AC900005A8F0DB0CF01AF80028ECD101263046AC
:10ACA00013B0F0BD0646304613B0F0BD2DE9F047B5
:10ACB000164600240122C6E90942824688461D46FE
:10ACC00006F124094A4631465046FFF779FE074609
:10ACD00068B92A4631465046FFF750FF50B1831CF1
:10ACE0001FD1736A013302D0B36A0133EAD1384607
:10ACF000BDE8F0872C7904F07004202CE9D1AB6812
:10AD0000D8F80020934208D0E868D8F804108842A8
:10AD100003D08B4201D08242DBD101273846BDE807
:10AD2000F0870746E3E700BF2DE9F04F2DED028BDA
:10AD30008DB090461C46099340F622032268C8F85D
:10AD400004300892D0E90123724EC8F808208246E8
:10AD50008946C8F80C3000F1140B089D314628468E
:10AD60000CF0F5FE2B460344044631461846059385
:10AD70000CF0ADFE0128049000F0B080022804D150
:10AD8000059B1B782E2B00F0B280DDE904231344D1
:10AD900008931F460124314638460CF0D8FE07447C
:10ADA000384631460CF093FE78B1022802D00134C7
:10ADB0000744F0E73B782E2BF9D17B782E2BF6D188
:10ADC000013CF5D1BB1C0893C7E7059C20780028FF
:10ADD0005FD0099B1C6098F80430222B40F08D80D6
:10ADE00008F108031A464946504608EE103AFFF7A4
:10ADF000E7FD00284DD1049B013B234407934246C5
:10AE000049465046FFF7BAFE002842D198F8042080
:10AE100002F07F03112B01D0222BF0D198F80730DC
:10AE200004998B42EBD1D8F8003098F8051098F8C7
:10AE30000650D9F8047004330B441D44049BA3B39B
:10AE4000059BCDF818800135DDF81C80ED1A5C1EDD
:10AE500007E014F8012F9DF82F309A421ED1444587
:10AE60001FD0DAF800301A6A974205EB040347D284
:10AE7000012202920DF12F02CDE9003259463B46E4
:10AE800000225046FFF776FB0028E2D0DDF818805C
:10AE900009DA0DB0BDEC028BBDE8F08FDDF818804B
:10AEA000ADE7DDF8188098F8042013067FF555AF5C
:10AEB000DAF8043001330CD0DAF80830013308D066
:10AEC00018EE101A5046FFF7B9FE00281ED198F868
:10AED000042002F07F0288F804203EE72B5D2E2B31
:10AEE0007FF453AFDDE904231344089335E7059B52
:10AEF0005B782E2B7FF449AFF4E76FF01300C8E7BF
:10AF0000054B064A064812210BF04CFEC1DB6FF0E0
:10AF10000100BEE7E4A30300FCA2030030A5030088
:10AF20001CA303002DE9F04F8B469DB00BF10403E9
:10AF300004930BF10C03CDE9053B016B04464FF084
:10AF400001080025D4E90D3010E05A09E66B0138FC
:10AF50005F1CA063676356F822C003F01F0208FA63
:10AF600002F212EA0C0F00F027813B469942ECD125
:10AF7000002800F0F2812268E36AD2E908621944ED
:10AF8000904228BF1046B1FBF6F306FB1311206375
:10AF9000E162E06B6563D20800210BF0CDFE6368CF
:10AFA000013300F05781A368013300F05381002280
:10AFB00001230025CDE9082304F1140701222E46C0
:10AFC000D4F800C0E16ADCF82030206B591A0E4436
:10AFD000B6FBF3F503FB1565854210D26909E26BF8
:10AFE00005F01F0552F8213008FA05F51D4342F817
:10AFF0002150DCF82030E16A099A206B591A0A4482
:10B00000B2FBF3F103FB112383420AD25809E16B2F
:10B0100003F01F0351F8202008FA03F3134341F80B
:10B02000203008AA11A92046FFF7CAFC002840F0EA
:10B030000E810C25149A24E02068129B006A83423A
:10B0400080F01A820EA9CDE900210295002239462E
:10B050002046FFF78FFA002840F0F9809DF839204C
:10B060009DF83A309DF83B60149904321A449DF8DB
:10B070003830324403F070030A44102B149200F06D
:10B08000EB80199B23F00043043B02F10C00984233
:10B09000D2D9DDE91A62701CCDE9086201D0511CD9
:10B0A0008ED1D4F80C904D46B9F1000F00F0DE813E
:10B0B000EB69DA0340F156816F69002F00F052818D
:10B0C000D4F800A0DAF81C60013F083EB742C0F097
:10B0D000CF81B7FBF6F001380BF04AFD0230A7EB49
:10B0E0008002B2FBF6F6D4F830E0E16A2B690795EE
:10B0F00005F12C000546DAF82020704604F1140909
:10B100008E4601469818A0EB0E0EBEFBF2F002FB35
:10B1100010E28A420AD25709E06B02F01F0250F88F
:10B12000271008FA02F20A4340F82720002E00F008
:10B130001781DAF8202006F00107C7F1020A9342CE
:10B140004FEA8A0080F098810BA90022CDE9011016
:10B15000009249462A462046FFF70CFA002876D18D
:10B160000AF1FF3CD4F800A013E0BBFBF2F302FBB2
:10B1700013B38B424FF0010014D24FEA531EE16B20
:10B1800003F01F0351F82E2000FA03F3134341F894
:10B190002E30D4F82CE0DAF820200B9B216BA2EBA8
:10B1A0000E0B9B446045E0DB1CAB03EB8C0C023FB9
:10B1B0005CF8443C3E44A5E72068E26A016A134417
:10B1C000B3FBF1F201FB1233049A42F8043BD4E9D9
:10B1D0000C139942049207D10FE0A26B0133013A9C
:10B1E0008B42C4E90D3208D05D0903F01F0256F806
:10B1F000255008FA02F22A42EFD1DDE904329342E7
:10B200007FF49FAEDDF818B0006ADBF804308342AB
:10B210000BF11C0204F1140180F02E81042501922F
:10B220000022204602950092FFF7A4F9002840F082
:10B230008B80DBF81C304FF0FF32CBE90922142061
:10B2400001331021CBE90730CBF80C1000201DB0E2
:10B25000BDE8F08F216B75E6109B002B3FF411AF1A
:10B26000D4F800A0DAF81C6003F1FF3BA6F108094E
:10B27000CB4570D3BBFBF9F001380BF079FC861C91
:10B28000ABEB8606B6FBF9F60F9BE16ADAF82020F5
:10B29000D4F830E09818401AB0FBF2F102FB11022A
:10B2A00072450BD24FEA521CE16B02F01F0251F8BB
:10B2B0002C0008FA02F2024341F82C20002E3FF441
:10B2C000B9AEDAF8202006F00109C9F1020A93426A
:10B2D0004FEA8A0080F0D0800BA90022CDE901104E
:10B2E000009239462046FFF745F90028AFD10AF110
:10B2F000FF3CD4F800A013E0BBFBF2F302FB13B356
:10B3000073454FF0010014D24FEA531EE16B03F076
:10B310001F0351F82E2000FA03F3134341F82E3097
:10B32000E16ADAF820200B9BD4F830E0A2EB010BA5
:10B330009B446045E0DB1CAB03EB8C0CA9F10209DC
:10B340005CF8443C4E44A5E710F1340F3FF471AF74
:10B350001DB0BDE8F08F064696E76FF01B0076E75C
:10B36000079DEB699B037DD52F6A002F7AD0D4F817
:10B3700000A0DAF81C60013F083EB7427AD3B7FB61
:10B38000F6F001380BF0F4FB0230A7EB8003B3FBBF
:10B39000F6F6D4F830E0E16A6B6A079505F12C0007
:10B3A0000546DAF82020704604F114098E4601465D
:10B3B0009818A0EB0E0EBEFBF2F002FB10E28A42E0
:10B3C0000AD25709E06B02F01F0250F8271008FA62
:10B3D00002F20A4340F82720002E42D0DAF820205B
:10B3E00006F00107C7F1020A93424FEA8A0043D2EE
:10B3F0000BA90022CDE90110009249462A462046B9
:10B40000FFF7B8F800287FF422AF0AF1FF3CD4F828
:10B4100000A013E0BBFBF2F302FB13B38B424FF02F
:10B42000010014D24FEA531EE16B03F01F0351F8E1
:10B430002E2000FA03F3134341F82E30D4F82CE009
:10B44000DAF820200B9B216BA2EB0E0B9B4460458E
:10B45000E0DB1CAB03EB8C0C023F5CF8443C3E444D
:10B46000A6E7079D2D68002D7FF422AE216B68E5CD
:10B47000002638E600268CE7024B034A03481221D7
:10B480000BF090FBFCA2030030A503001CA30300FB
:10B490002DE9F04F2DED028B9BB001250446049160
:10B4A000A9464FF00008D4E90D31D4F830C00FE0C0
:10B4B0005A09E76B0139581CA163606357F8226091
:10B4C00003F01F0205FA02F2324200F02A8103461D
:10B4D0009C45EDD1002900F052822368E66AD3E949
:10B4E0000802B444914228BF1146BCFBF0F300FBB4
:10B4F00013C32163E362E06BC4F83480D2080021F7
:10B500000BF01AFC63680133CDD0A3680133CAD0B5
:10B5100000220123CDE906230122002004F11407B3
:10B5200096462268E36A116A266BCB1A03EB000C7D
:10B53000BCFBF1F001FB10C0864210D94609E16B5B
:10B5400000F01F0051F8263005FA00F0184341F8CA
:10B550002600D4E90B36116ADDF81CE0CB1A7344DF
:10B56000B3FBF1F201FB1233B3420AD25809E16B8B
:10B5700003F01F0351F8202005FA03F3134341F8A9
:10B58000203006AA0FA92046FFF71AFA002840F03B
:10B59000E9804FF00C08129A0CAE23E02168109B52
:10B5A000096A8B4280F0F5810092CDE901680022A2
:10B5B00039462046FEF7DEFF002840F0D3809DF894
:10B5C00031209DF832109DF833C0129B04320A449A
:10B5D0009DF8301062441A4401F07003102B12924F
:10B5E00000F0C580179B23F00043043B02F10C01DF
:10B5F0009942D3D9DDE9180E411CCDE9060E02D0DF
:10B60000BEF1FF3F8DD1D4F80C804646B8F1000F53
:10B610003FF447AFF369DA0340F128817769002FDF
:10B6200000F02481D4F800A0DAF81C30013FA3F127
:10B6300008084745C0F0A881B7FBF8F001380BF0C7
:10B6400097FA0230A7EB8007B7FBF8F704F1140074
:10B65000E16AD4F830C0DAF82020336905968346D1
:10B6600006F12C0008EE100A0E4661469818A0EB71
:10B67000060EBEFBF2F002FB10E28A420BD2E06B38
:10B680004FEA521C02F01F0150F82C2005FA01F17C
:10B690000A4340F82C20002F00F0E680DAF8202042
:10B6A00007F00108C8F1020A93424FEA8A0080F0CD
:10B6B000708109A90022CDE901100092594618EEC7
:10B6C000102A2046FEF756FF00284BD10AF1FF3C16
:10B6D000D4F800A012E0BEFBF2F302FB13E38B42AE
:10B6E0004FF0010012D25E09E16B03F01F0351F825
:10B6F000262009FA03F3134341F82630E66ADAF804
:10B700002020099B216BA2EB060E9E446045E2DBE4
:10B710001AAB03EB8C0CA8F102085CF8443C4744DC
:10B72000A4E72168E26A096A1344B3FBF1F201FB62
:10B730001233049A1360D4E90C03834211D001251B
:10B7400006E0A26B0133013A8342C4E90D3208D00E
:10B75000590903F01F0257F8211005FA02F20A42B4
:10B76000EFD100201BB0BDEC028BBDE8F08F0E9E28
:10B77000002E3FF411AFD4F800A0DAF81C20013EEF
:10B78000A2F1080B5E450AD3B6FBFBF001380BF0C3
:10B79000EFF90230A6EB8003B3FBFBF31846E16A36
:10B7A000D4F830C00D9BDAF8202008EE107A8E46CF
:10B7B000074661469818A0EB0E0EBEFBF2F002FBA6
:10B7C00010E28A420AD25609E06B02F01F0250F8DA
:10B7D000261005FA02F20A4340F82620002F00F056
:10B7E000D580DAF8202007F00106C6F1020A93425C
:10B7F0004FEA8A0080F0CD8009A90022CDE901102E
:10B80000009218EE101A2046FEF7B4FE0028A9D1C7
:10B810000AF1FF3CD4F800A013E0BBFBF2F302FBFB
:10B8200013B38B424FF0010014D24FEA531EE16B69
:10B8300003F01F0351F82E2009FA03F3134341F8D4
:10B840002E30D4F82CE0DAF82020099B216BA2EBF3
:10B850000E0B9B446045E0DB1AAB03EB8C0C023E05
:10B860005CF8443C3744A5E7059EF3699B0340F12F
:10B870008180376A002F7DD0D4F800A0DAF81C2030
:10B88000013FA2F1080847457CD3B7FBF8F0013827
:10B890000BF06EF90230A7EB8007B7FBF8F704F165
:10B8A0001400E16AD4F830C0DAF82020736A0596F3
:10B8B000834606F12C0008EE100A0E4661469818E1
:10B8C000A0EB060EBEFBF2F002FB10E28A420BD2A6
:10B8D000E06B4FEA521C02F01F0150F82C2005FAD1
:10B8E00001F10A4340F82C20002F42D0DAF8202042
:10B8F00007F00108C8F1020A93424FEA8A0048D2D1
:10B9000009A90022CDE901100092594618EE102A2B
:10B910002046FEF72FFE00287FF424AF0AF1FF3CFB
:10B92000D4F800A012E0BEFBF2F302FB13E38B425B
:10B930004FF0010012D25E09E16B03F01F0351F8D2
:10B94000262009FA03F3134341F82630E66ADAF8B1
:10B950002020099B216BA2EB060E9E446045E2DB92
:10B960001AAB03EB8C0CA8F102085CF8443C47448A
:10B97000A5E7059E3668002E7FF44CAE91E56FF08A
:10B980001B00EFE600278AE700275FE618EE107A33
:10B9900001E6034B034A044812210BF003F900BFF0
:10B9A000FCA2030030A503001CA303002DE9F04F07
:10B9B000044687B00F4600F1140905A92046FFF799
:10B9C00067FD064640B920680599C3689847064652
:10B9D00030B110F1340FF0D0304607B0BDE8F08F31
:10B9E000BB6A83B307F12C0A35460DF1130804F145
:10B9F000200B13E02268059B126A934247D2012272
:10BA0000CDE9018200954A4659462046FEF714FFCB
:10BA1000002831D1BB6A0135AB4214D922687B6A58
:10BA2000126A93422DD20122CDE90182009552463D
:10BA300049462046FEF79EFD0028DBD006463046EC
:10BA400007B0BDE8F08F2368A16A9A69786B0BF0A4
:10BA50004BF9D4E908122368A06AC7E90B12FF2149
:10BA60009A690BF069F9059B4FF0FF32304622626C
:10BA70007B6207B0BDE8F08F10F1340F9DD0064611
:10BA8000DDE7064B064A074812210BF08BF8034B03
:10BA9000054A04489C210BF085F800BFFCA2030076
:10BAA00030A503001CA3030040A503002DE9F04FBF
:10BAB0002DED028BC9B004462C2200211CA80BF0EE
:10BAC0003BF94FF00043282227A8002124930BF0D4
:10BAD00033F923681B6A01223192002B00F0C981DF
